:020000040800F2
:100000007008002091010008EB260008FB20000882
:10001000E9260008D9060008BD2A000800000000F3
:10002000000000000000000000000000972700080A
:10003000430A000800000000ED260008D927000848
:10004000AB010008AB010008AB010008AB010008E0
:10005000AB010008AB010008AB010008AB010008D0
:10006000AB010008AB010008AB010008AB010008C0
:10007000AB010008AB010008AB010008AB010008B0
:10008000AB010008AB010008AB010008AB010008A0
:10009000AB010008AB010008AB010008AB01000890
:1000A000AB010008AB010008AB010008AB01000880
:1000B000AB010008AB010008AB010008AB01000870
:1000C000AB010008AB010008AB010008AB01000860
:1000D000AB010008AB010008B12A0008AB01000821
:1000E000AB010008AB010008AB01000800F002F80A
:1000F00000F03FF80AA090E8000C82448344AAF183
:100100000107DA4501D100F034F8AFF2090EBAE880
:100110000F0013F0010F18BFFB1A43F0010318473B
:10012000C8420000E8420000103A24BF78C878C1F5
:10013000FAD8520724BF30C830C144BF04680C60ED
:10014000704700000023002400250026103A28BF35
:1001500078C1FBD8520728BF30C148BF0B60704739
:10016000642900F07180002070471FB51FBD10B5D5
:1001700010BD00F0E2F91146FFF7F7FF02F0B6FC00
:1001800000F000FA03B4FFF7F2FF03BC00F008FA36
:100190000948804709480047FEE7FEE7FEE7FEE71B
:1001A000FEE7FEE7FEE7FEE7FEE7FEE70448054957
:1001B000054A064B7047000063280008ED00000860
:1001C00070020020700800207004002070040020DD
:1001D0000FB41CB5074B06AA7B44694600900598EE
:1001E00000F093F90020694600F0A2F91CBC5DF80C
:1001F00014FB00005503000070B5044685690068D3
:10020000C10601D5302600E02026C00707D070BD0A
:10021000D4E9012130469047206A401C20626D1EBF
:10022000F6D570BD70B5044685690078C00707D162
:1002300070BDD4E9012120209047206A401C206233
:100240006D1EF6D570BD00002DE9F0410646002474
:1002500010687529314616A510D0AFF3008000282C
:1002600002DA404213A507E031688A0701D512A5DA
:1002700002E0490704D511A5012401E0AFF3008095
:1002800000210A2206F1240709E0B0FBF2FCB0FBD2
:10029000F2F302FB1C00303078541846491C002849
:1002A000F3D123462A463046BDE8F04100F0CEB8EF
:1002B000000000002D0000002B00000020000000C6
:1002C0002DE9F05F894604464FF0000ADFF824B1BB
:1002D000FB44C0F820A02046E168884700287DD074
:1002E000252806D0D4E901219047206A401C2062CD
:1002F000F1E700255F462046E1688847202806464A
:1003000007DB312E05D2B81910F8200C08B10543CF
:10031000F1E7A80701D525F00405C4F81CA00027C3
:10032000C4F818A02A2E09D0304602F0D8FB38B302
:1003300004EB8708303EC8F8186019E059F8041B30
:10034000204604EB87029161E1688847012F064649
:1003500018D1E069002820DA25F020051DE0D8F842
:10036000180000EB800006EB40003038C8F8180099
:100370002046E1688847064602F0B1FB0028EED12E
:10038000012F0AD02E2E08D12046E16888477F1C15
:100390000646022F45F02005C4DBA069002803DAD9
:1003A000404245F00105A061E80701D025F01005A5
:1003B000A6B1A6F14100192802D8203645F40065FF
:1003C0004A463146204625604D46FFF7C9FE60B1DA
:1003D000012807D0ED1D25F0070000E007E000F13F
:1003E000080978E705F1040975E730467AE7206ADD
:1003F000BDE8F09F024100004FF0000200B5134637
:1004000094469646203922BFA0E80C50A0E80C5034
:10041000B1F12001BFF4F7AF090728BFA0E80C50E5
:1004200048BF0CC05DF804EB890028BF40F8042BDE
:1004300008BF704748BF20F8022B11F0804F18BF4B
:1004400000F8012B70477047704770472DE9F0475F
:100450000D4699469246044600F124080168880634
:1004600004D5E06921F01001216000E00120A842DC
:1004700001DD471B00E00027A1697A1902EB0900A2
:10048000081AA0612078C00602D42046FFF7B4FE07
:10049000002608E0D4E901211AF806009047206AF6
:1004A000401C761C20624E45F4DB2078C0060AD53D
:1004B0002046FFF7A1FE06E0D4E901213020904755
:1004C000206A401C2062381EA7F10107F4DC07E017
:1004D000D4E9012118F805009047206A401C2062E9
:1004E000281EA5F10105F3DC2046FFF79BFE2078CE
:1004F000000602D50220BDE8F0870120FBE70000DE
:1005000001694A1C02610878704700B58FB0CDE9D7
:1005100001310021059105497944CDE903101146C7
:100520006846FFF7CDFE0FB000BD0000E5FFFFFFFE
:100530000A6802F8010B0A607047754600F02CF853
:10054000AE4605006946534620F00700854618B0C0
:1005500020B5FFF72BFEBDE820404FF000064FF01E
:1005600000074FF000084FF0000B21F00701AC46E8
:10057000ACE8C009ACE8C009ACE8C009ACE8C00907
:100580008D46704710B50446AFF300802046BDE8A5
:100590001040FFF7F7BD0000004870470C02002034
:1005A00001491820ABBEFEE7260002007047002379
:1005B00000F004B8012300F001B800002DE9FE4F5F
:1005C00007461D489B46154600680E46B8434FF047
:1005D000000800F101094FF0640A25E02C46484666
:1005E0004D4500D90446A1B2CDE900611348BBF1E5
:1005F000000FBAB24FF01003CDF808A04FF0A001E1
:1006000002D000F045FF01E000F01AFE2D1B8046ED
:10061000274426444FF02009BBF1000F01D00A20E7
:1006200000E0052000F07EFA15B1B8F1000FD5D03A
:100630004046BDE8FE8F000000000020BC00002006
:100640007CB50D460446002100F032F8052000F08C
:1006500069FA0121204600F02BF8052000F062FA2B
:100660002021204600F024F88C2000F05BFA1E20A8
:100670000090A0884FF6FF7101EA4001022301AA11
:10068000206800F025FC08B100207CBDBDF8040006
:1006900040BA03F094FB4FF03332044B03F00AFAF4
:1006A00003F060FB288001207CBD00003333F33F62
:1006B0001CB54FF6FF728DF804101E210091818841
:1006C000006802EA4101012301AA00F023FD08B1FC
:1006D00000201CBD01201CBDFEE7016082800021BE
:1006E0008171704710B504468188006800F01CFBDA
:1006F0000028A07902D0012808D005E020B9012007
:10070000A071322000F00EFA002010BD0020A07170
:10071000012010BD017A002221F00101017200F0D8
:1007200093B8017A002241F00101017200F08CB807
:1007300010B50022012100F087F8BDE81040052027
:1007400000F0F0B910B5044602982160227163717F
:10075000A0712820A0720620E0710C2020721420C5
:1007600060720820E072322000F0DCF900223321B0
:10077000204600F069F800223321204600F064F89A
:10078000052000F0CFF900223221204600F05CF86D
:10079000052000F0C7F900222021204600F054F87F
:1007A000052000F0BFF9E1790022204600F04CF866
:1007B000217A0022204600F047F8617A0022204684
:1007C00000F042F8A17A0022204600F03DF8002215
:1007D0000121204600F038F820460022BDE81040F4
:1007E000022100F031B830B4447900238C4201D8A2
:1007F000641EE1B28479944201D8641EE2B232B13F
:10080000012A06D0022A06D0032A06D007E00B46AA
:1008100005E0403102E0143100E05431CBB230BC8D
:1008200043F08001002200F00FB8012200F00CB864
:1008300070B50C46054603E02846641CFFF7F5FF3B
:1008400021780029F8D170BD7CB506460807040E52
:10085000F07A01F0F00518B145F0080544F00804FD
:10086000012A01D02AB108E045F0010544F0010455
:1008700003E025F0010524F0010445F004008DF8A3
:100880000400012000F04EF98DF8055044F00400FA
:100890008DF80600012000F045F94FF47A708DF8CC
:1008A000074000903179042301AA306800F032FC3F
:1008B0007CBD00F00F01000900EB800001EB40005F
:1008C000C0B270470A21B0FBF1F201FB1202B0FB8B
:1008D000F1F002EB0010C0B2704710B5002000F03C
:1008E00003F8C00910BD000011B583B04FF47A744D
:1008F000012303AAD0210748009400F00BFC012338
:1009000001AAD0210348009400F0E2FA9DF8040007
:1009100004B010BDBC00002010B508B1802400E078
:1009200000240020FFF7E0FF00F07F012143BDE835
:1009300010400020AFF300801CB502238DF80400A6
:100940004FF47A708DF80510009001AAD02102486A
:1009500000F0E0FB1CBD0000BC00002070B50446A8
:100960000020FFF7C1FF00F07F00FFF7A2FF20701B
:100970000120FFF7B9FFFFF79CFF60700220FFF72F
:10098000B3FF00F03F00FFF794FFA0700420FFF7D3
:10099000ABFFFFF78EFFE0700520FFF7A5FFFFF725
:1009A00088FF20711020FFF79FFF642100FB01F5F5
:1009B0000620FFF799FFFFF77CFF2844E08070BD19
:1009C0002DE9F0479946DDE9087415468846064644
:1009D000FFF783FF3043FFF775FF01460020FFF765
:1009E000ABFF4046FFF76EFF01460120FFF7A4FF73
:1009F00005F03F00FFF766FF01460220FFF79CFF6E
:100A00004846FFF75FFF01460420FFF795FF384691
:100A1000FFF758FF01460520FFF78EFF6425B4FB62
:100A2000F5F0C1B21020FFF787FFB4FBF5F005FB2E
:100A30001040FFF747FFBDE8F04701460620FFF7EB
:100A40007BBF704710B590F821100022022905D015
:100A50000421816380F82020012010BD01680B680B
:100A600023F00E030B6001680B6823F001030B6099
:100A700090F84030C46B012101FA03F3636080F801
:100A8000211080F82020104610BD000010B590F80D
:100A900021100024022903D00421816301243DE0B8
:100AA00001680A6822F00E020A6001680A6822F0F2
:100AB00001020A601A4A0168914201D1012121E034
:100AC000174A1432914201D110211BE0144A2832F6
:100AD000914201D1891515E0114A3C32914201D170
:100AE00089140FE00E4A5032914202D14FF4803106
:100AF00008E00B4A6432914202D14FF4801101E0C8
:100B00004FF08071064A083A5160012180F82110A7
:100B1000002180F82010416B01B18847204610BDAC
:100B20000800024070B5044600F008F90546601C54
:100B300002D004480078044400F000F9401BA042B1
:100B4000FAD370BD7C0000202DE9F84FDFF8B89192
:100B5000002409F1040A0AF1040B23460F270BF1C4
:100B6000040EC9E00125A5402A40AA427DD1674E66
:100B7000D1F804C0ACEB0608B44532D014DCBCF1AB
:100B8000030F3AD009DCBCF1000F2AD0BCF1010FF1
:100B90001CD0BCF1020F31D11DE0BCF1110F17D0F8
:100BA000BCF1120F2AD119E0B8F5881F19D006DC64
:100BB000B8F5803F15D0B8F5801F1FD111E0B8F50A
:100BC000001F0ED0B8F5041F18D10AE0CB6815E05D
:100BD000CB681B1D12E0CB6808330FE0CB680C33E9
:100BE0000CE08B682BB1012B4FF0080303D045615B
:100BF00004E0042302E0056100E00023FF2A01D89D
:100C0000064601E000F104064FEA840501D9A5F18A
:100C10002005D6F8008007FA05FC28EA0C0803FA3C
:100C200005F548EA0508C6F800804D68ED0062D574
:100C3000374DAE6946F00106AE61AD6924F003069A
:100C400005F001050095334D06EB050CDCF8085066
:100C5000A607360F07FA06F825EA0805DFF8B88078
:100C6000404503D14FF0000817E044E0DFF8AC80C6
:100C7000404502D14FF001080FE0DFF8A480404565
:100C800002D14FF0020808E0DFF89880404502D119
:100C90004FF0030801E04FF0040808FA06F848EAAC
:100CA0000508CCF808804D68D9F80060ED034D4682
:100CB00001D5164300E096432E604D68DAF80060D7
:100CC000AD03554601D5164300E096432E604D68AE
:100CD000DBF80060ED025D4601D5164300E0964367
:100CE0002E604D68DEF80060AD02754601D51643F2
:100CF00000E096432E60641C0D682A46E5407FF4B0
:100D000031AFBDE8F88F0000000401400000111071
:100D1000001002400000014000080140000C0140AA
:100D200000100140001401408068084000D00120FC
:100D300070470AB1016170470904FBE70148806808
:100D4000704700007C00002070B5040025D094F8A6
:100D50003D00002520B984F83C50204600F030FCCE
:100D6000242084F83D002068016821F00101016021
:100D70002068016841F4004101602068016821F4A5
:100D80000041016000F078FD4D4A6168914201D850
:100D90004C4900E04C49884201D2012070BD4B49CA
:100DA0002368B0FBF1F15E6826F03F060E435E60FB
:100DB0006368934206D94FF4967359434FF47A739C
:100DC000B1FBF3F12368491C1E6A26F03F0631434C
:100DD00019626168914210D84900401EB0FBF1F2DF
:100DE000521CC2F30B02042A01D2042022E0B0FB01
:100DF000F1F0401CC0F30B001CE0A268F2B301EB61
:100E0000C10303EB0116431EB3FBF6F35B1C43F473
:100E100080431B0549D092B301EBC10202EB0111E3
:100E2000401EB0FBF1F0401CC0F30B0040F48040CA
:100E300040F400402168CA694CF6FF739A4310439E
:100E4000C861D4E9071001432068026822F0C0029B
:100E500011430160D4E9030101432068826848F22C
:100E6000FF339A4311438160D4E9050108432168A7
:100E7000CA6822F0FF021043C86001E00EE016E0ED
:100E80002068016841F0010101602564202084F898
:100E90003D00256384F83E50002070BD01EB410603
:100EA000431EB3FBF6F35B1CB3E70120C2E701EB83
:100EB0004101401EB0FBF1F0401CC0F30B00B7E74E
:100EC000A086010080841E0000093D0040420F0002
:100ED0002DE9F84F0025DDF82890984617468A46F8
:100EE00004460095FFF72AFF064694F83D002028A7
:100EF0007AD11923012283492046009601F0D2FAC3
:100F00000028F5D194F83C0001286DD0012084F828
:100F10003C0020680168C90703D1016841F0010164
:100F200001602068016821F400610160222084F8DA
:100F30003D00102084F83E0025646762A4F82A80F2
:100F4000608D20857048E06233464A46514620460F
:100F500001F0ECF800287DD1208DDFF8B08120274A
:100F600068B1012814D00228206801681ED041F41D
:100F7000806101602068416980690090B5E0206867
:100F8000416981690091016841F400710160ACE040
:100F90002068016821F48061016072B620684169AF
:100FA00081690091016841F400710AE041F4006137
:100FB000016072B62068416981690091016821F47D
:100FC0008061016062B690E0032868D801280CD0E7
:100FD00002284B464FF000024146204600960FD0B3
:100FE00001F060FAB0BB10E08AE032464946204684
:100FF00001F0D7FA70BB20680069616A08706BE085
:1010000001F050FA30BB72B634E02068016821F478
:101010008061016072B620680069616A0870606A68
:10102000401C6062208D401E2085608D401E6085C2
:10103000374846F2A8110068B0FBF1F0C0EBC000E1
:1010400000EB80000090401E009008D020684069AE
:10105000C04300E029E040070CD50098F3E744F8CE
:10106000305F6773A573206940F02000206162B68D
:1010700025731AE02068016841F40071016020685E
:101080000069616A0870606A401C6062218D491EB7
:101090002185618D491E618562B621681AE032465C
:1010A0004946204601F07DFA10B10120BDE8F88FD5
:1010B00020680069616A0870606A401C6062218D66
:1010C000491E2185618D491E618521684A69D24387
:1010D00052070AD409690170606A401C6062208D61
:1010E000401E2085608D401E6085208D00287FF485
:1010F0006BAF84F83D7084F83E5084F83C50D5E7DF
:101100000220D3E7020010000000FFFF04000100EE
:10111000880000202DE9F84F1F4690468A46044675
:10112000DDF82890FFF70AFE054694F83D002028D8
:101130007FD11923012240492046009501F0B2F9E0
:10114000002876D194F83C00012872D0012084F860
:101150003C0020680168C90703D1016841F0010122
:1011600001602068016821F400610160212084F899
:101170003D00102084F83E0000262664C4F8248038
:101180006785608D20852D48E0622B464A46514692
:10119000204601F041F890B92068416980690090CB
:1011A00036E02A464946204601F02EFA50B1206C1E
:1011B000042804D12068016841F400710160012015
:1011C000BDE8F88F606A216800780861606A401C99
:1011D0006062618D491E6185218D491E89B221851C
:1011E00022685369DB435B070BD451B1007810616F
:1011F000606A401C6062608D401E6085208D401ECC
:1012000020852A464946204601F026F90028CED1FD
:10121000208D0028C5D154F83D0B016841F40071C0
:101220000160202004F81E09E67766770020C7E7F2
:10123000FFE70220C4E70000020010000000FFFFEB
:101240002DE9FF4F83B00025DDE910799A469346DA
:101250000446DDF848800095FFF770FD064694F8D7
:101260003D0020287CD11923012285492046009683
:1012700001F018F90028F5D194F83C0001286FD04E
:10128000012084F83C0020680168C90703D1016887
:1012900041F0010101602068016821F400610160F2
:1012A000222084F83D00402084F83E0025646762D7
:1012B000A4F82A90608D20857248E062CDE900860E
:1012C00053465A462046049900F0F4FF00287DD189
:1012D000208DDFF8B491202768B1012814D00228AE
:1012E000206801681ED041F4806101602068416976
:1012F00080690090B6E020684169816900910168C9
:1013000041F400710160ADE02068016821F4806162
:10131000016072B62068416981690091016841F4F9
:1013200000710AE041F40061016072B62068416911
:1013300081690091016821F48061016062B691E0E9
:10134000032868D801280CD0022843464FF0000239
:101350004946204600960FD001F0A4F8B0BB10E03B
:101360008BE032464146204601F01BF970BB2068F5
:101370000069616A08706CE001F094F830BB72B6E5
:1013800034E02068016821F48061016072B6206851
:101390000069616A0870606A401C6062208D401EAE
:1013A0002085608D401E6085384846F2A81100688F
:1013B000B0FBF1F0C0EBC00000EB80000090401EDD
:1013C000009008D020684069C04300E029E0400751
:1013D0000CD50098F3E744F8305F6773A573206974
:1013E00040F02000206162B625731AE02068016891
:1013F00041F40071016020680069616A0870606AE8
:10140000401C6062218D491E2185618D491E6185C8
:1014100062B621681BE032464146204601F0C1F821
:1014200018B1012007B0BDE8F08F20680069616A3B
:101430000870606A401C6062218D491E2185618DA3
:10144000491E618521684A69D24352070AD4096955
:101450000170606A401C6062208D401E2085608D96
:10146000401E6085208D00287FF46AAF84F83D70AF
:1014700084F83E5084F83C50D4E70220D2E70000C4
:10148000020010000000FFFF04000100880000209F
:101490002DE9FF4F83B09A46DDE911979346044644
:1014A000DDF84080FFF74AFC054694F83D0020280F
:1014B0007FD11923012240492046009500F0F2FF18
:1014C000002876D194F83C00012872D0012084F8DD
:1014D0003C0020680168C90703D1016841F001019F
:1014E00001602068016821F400610160212084F816
:1014F0003D00402084F83E0000262664C4F8248085
:10150000A4F82A90608D20852C48E062CDE9007512
:1015100053465A462046049900F04AFF70B930E01D
:101520002A463946204601F06FF858B1206C04284D
:1015300004D12068016841F400710160012007B006
:10154000BDE8F08F606A216800780861606A401C1D
:101550006062218D491E89B22185628D521E62858D
:1015600022685369DB435B070BD469B100781061D3
:10157000606A401C6062208D401E2085608D401E88
:101580006085208D0028CBD12A463946204600F0C0
:1015900063FF0028CAD154F83D0B016841F4007183
:1015A0000160202004F81E09E67766770020C6E770
:1015B000FFE70220C3E70000020010000000FFFF69
:1015C00010B586B00021009101910291039100684D
:1015D0000F4988421AD10F4CA06940F00800A06161
:1015E000A069694600F008000490C0200090122015
:1015F0000190032003900848FFF7A6FAE06940F441
:101600000010E061E06900F40010049006B010BD25
:101610000054004000100240000C01400248816864
:1016200002781144816070477C000020074810B5A3
:10163000016841F010010160032000F075F80F20EF
:1016400000F006F800F024F8002010BD0020024051
:1016500070B50D4D04464FF47A712878B1FBF0F067
:101660000A490968B1FBF0F000F0ECFA48B9102C17
:1016700007D200222146501E00F036F800206C6090
:1016800070BD012070BD00007C000020880000209B
:101690000C4808B5816941F001018161816901F05F
:1016A00001010091C16941F08051C161C06900F040
:1016B000805000900448416821F0E06141F00071E1
:1016C000416008BD0010024000000140002809DB15
:1016D00000F01F02012191404009800000F1E0204C
:1016E000C0F8001170470000F0B40E4B1B680C46A8
:1016F000C3F30223C3F10705042D00D90425191DE6
:10170000072901D2002300E0DB1E012606FA05F1BD
:10171000491E214099409E40761E16403143F0BC40
:1017200001F0CDB90CED00E0064900F007020868B1
:101730004FF6FF03184040EA0220034A10430860B6
:10174000704700000CED00E00000FA052DE9F047BD
:101750000F46050061D0434E306800F00700B842E4
:1017600009D2306820F0070038433060306800F05C
:101770000700B84251D128683B4C810712D5400779
:1017800003D5606840F4E06060602878000703D506
:10179000606840F4605060606068A96820F0F00004
:1017A000084360602878C00728D06868012810D0F6
:1017B0002168022810D0890700292EDA616821F0FB
:1017C000030101436160FFF7B9FA804641F28839AD
:1017D0000DE021688903EFE78901EDE7FFF7AEFA35
:1017E000A0EB0801494502D90320BDE8F0876068F5
:1017F000696800F00C00B0EB810FEFD1306800F0A9
:101800000700B8420BD9306820F007003843306039
:10181000306800F00700B84201D00120E5E72878E1
:10182000400705D56068E96820F4E060084360601F
:101830002878000706D56068296920F4605040EADE
:10184000C100606000F038F86168084AC1F3031114
:10185000515CC8400649086006480068FFF7F8FE7A
:101860000020C2E70020024000100240BE430008F2
:10187000880000208000002004480549006849686D
:10188000044AC1F30221515CC8407047880000201F
:1018900000100240CE43000804480549006849682A
:1018A000044AC1F3C221515CC8407047880000203F
:1018B00000100240CE43000812A185B00FC98DE888
:1018C0000F0014A0144A006804905168134801F0F6
:1018D0000C03042B10D0082B0ED1C1F38343C90392
:1018E0001DF803000AD5516804AAC1F34041515CB8
:1018F0000A4A5043B0FBF1F005B07047084948432D
:10190000FAE7000002030405060708090A0B0C0D9C
:101910000E0F1010010200000010024000127A00A9
:1019200000093D002DE9F84F040070D02078C04D2B
:10193000C00749D06868C0F38100012807D06868F3
:10194000C0F38100022809D16868C00306D5286861
:10195000800339D560680028E7D035E06068B0F5CD
:10196000803F0BD010B1B0F5A02F11D0286820F423
:1019700080302860286820F4802002E0286840F445
:1019800080302860606890B1FFF7D8F906460AE019
:10199000286840F480202860F0E700BFFFF7CEF908
:1019A000801B642873D828688003F7D50CE0FFF704
:1019B000C5F9064605E000BFFFF7C0F9801B6428A3
:1019C000F0D828688003F7D420789A4E80074FF02B
:1019D00001094FF0000839D5686810F00C0F07D0E6
:1019E0006868C0F38100022809D16868C00306D482
:1019F0002868800714D52069012808D110E02069E3
:101A0000B0B1C6F80090FFF799F9074605E00AE182
:101A1000FFF794F9C01B0228C4D828688007F7D5BF
:101A20002868616920F0F80040EAC10028600DE0F4
:101A3000C6F80080FFF782F9074604E0FFF77EF959
:101A4000C01B022823D828688007F7D42078000715
:101A50002CD57948A169D9B1C0F80090FFF76EF98B
:101A6000074604E0FFF76AF9C01B02280FD8686A2E
:101A70008007F7D571484FF4FA510068B0FBF1F0D8
:101A8000009000BF0098411E0091FAD20EE080E065
:101A9000C0F80080FFF752F9074604E0FFF74EF95F
:101AA000C01B022875D8686A8007F7D420784007E1
:101AB00060D5E8690027C00008D4E86940F080508C
:101AC000E861E869012700F0805000905C480168F7
:101AD000C90513D40168834641F480710160FFF7A2
:101AE0002DF9824606E000BFFFF728F9A0EB0A00B7
:101AF00064284ED8DBF80000C005F5D5E068012861
:101B00000AD008B1052813D0286A20F00100286205
:101B1000286A20F0040002E0286A40F001002862F0
:101B2000E06841F2883B98B1FFF708F982460BE084
:101B3000286A40F004002862EEE700BFFFF7FEF8D5
:101B4000A0EB0A0159455AD8286A8007F6D50CE05F
:101B5000FFF7F4F8824605E0FFF7F0F8A0EB0A0182
:101B600059454CD8286A8007F6D41FB1E86920F09F
:101B70008050E861E06988B36968C1F38101022996
:101B800044D00228C6F8608004D0FFF7D7F8044696
:101B900038E034E0FFF7D2F8074604E0FFF7CEF86C
:101BA000C01B02282BD828688001F7D4206AB0F522
:101BB000803F05D16868A16820F400300843686060
:101BC000D4E908010843696821F474110843686086
:101BD000C6F86090FFF7B2F8044606E025E000BFC3
:101BE000FFF7ACF8001B022809D828688001F7D558
:101BF0001BE000BFFFF7A2F8001B022802D9032058
:101C0000BDE8F88F28688001F4D40EE00128F7D0F1
:101C10006868226A00F48031914204D1616A00F45C
:101C20007010884201D00120EAE70020E8E70000B8
:101C3000001002400000424280044242880000201E
:101C40000070004010B5401EB0F1807F01D301202C
:101C500010BD4FF0E02460610F21601700F02FFFEE
:101C60000020A06107202061002010BD7047704750
:101C7000F8B5026804461068D168536910F00F0F78
:101C80004FF0000553D003F0010601F4907737437D
:101C90005FD0C20705D0CA0503D5226C42F001020D
:101CA0002264420705D5DA0703D0226C42F0020213
:101CB0002264820705D5DA0703D0226C42F00402C1
:101CC0002264020707D501F02002324303D0226CC0
:101CD00042F008022264226C002A34D0800604D527
:101CE000880602D5204600F0DDFD20684069216CA1
:101CF000C0F38010090700D430B3204600F0BAFDCD
:101D00002068416949061BD5416921F040014161C4
:101D1000A06BA8B158494163A06BFEF7B7FE00283D
:101D200011D0A06B416B01B0BDE8F04008478306BD
:101D30000FD58B060DD52046BDE8F84000F0B2BDAA
:101D40002046FFF794FFF8BD2046FFF790FF25647B
:101D5000F8BD266B2023012E52D1C60650D5CE06E3
:101D60004ED5106850680090506940062AD5A16B86
:101D7000086840680004000CEAD0A68D8642E7D9C6
:101D8000E0858869202818D0D06820F48070D06061
:101D90002068416921F0010141612068416921F019
:101DA0004001416184F83E3025632068C16821F01C
:101DB0001001C160A06BFEF745FEA08DE18D401AB9
:101DC00081B219E0A08DE18D401A81B2E08D00282A
:101DD000BED00029BCD0D06820F49070D0602068BC
:101DE000426922F00102426184F83E302563206896
:101DF000C26822F01002C2602046FFF737FFF8BD2C
:101E000005062BD50D0629D594F83D002128F6D1DD
:101E1000A068B0F5805F01D12069B0B1206A411C93
:101E20002162216800784860E08C401E0004000CAC
:101E3000E084E4D12068C16821F08001C16020689D
:101E4000C16841F04001C160F8BD206A0088C0F35C
:101E500008005060206A801C2062E5E74006F3D548
:101E60004806F1D5D168204621F04001D16084F8C0
:101E70003D3000F0FAF8F8BD6528000870B50400A0
:101E800004D094F83D00002510B106E0012070BD9B
:101E900084F83C50204600F023F8242084F83D00CC
:101EA0002068C16821F40051C160204600F056FD51
:101EB0002068016921F4904101612068416921F0A5
:101EC0002A0141612068C16841F40051C160256464
:101ED000202084F83D0084F83E00002070BD000002
:101EE00030B585B0002400940194029403940068F6
:101EF000184988422BD11848C16941F40031C161A9
:101F0000C16901F400310491816941F004018161EA
:101F10008069124D00F0040004900420009002201B
:101F200001900320039069462846FEF70DFE082025
:101F3000CDE90004694628460294FEF705FE00221A
:101F400011462620FFF7D0FB2620FFF7BFFB05B088
:101F500030BD000000440040001002400008014075
:101F600090F83E30202B0ED159B152B190F83C3050
:101F7000012B08D0012380F83C300023036300F0DC
:101F800049BD012070470220704700000848C17811
:101F9000312902D0302902D003E0012100E00021E4
:101FA000017003490122C91C0248FFF7D9BF000094
:101FB00004000020100100202DE9F843044690F8A9
:101FC0003D001F4616460D4620284CD1C5B1BEB176
:101FD00094F83C00012846D0012084F83C004FF0E2
:101FE0000008C4F84080212084F83D00FEF7A6FEDA
:101FF000A6848146E684A068B0F5805F03D004E043
:102000000120BDE8F883206928B12E465FF0000565
:1020100084F83C800EE00026FAE78021204600F09C
:1020200014FDA0B9AEB116F8010B21684860E08C30
:10203000401EE084E08C4B464FF0000200970028E1
:10204000EBD14FF04001204600F0FFFC30B10320FF
:10205000D7E735F8020BC0F30800E6E7202084F844
:102060003D000020CDE70220CBE77047F0B50F46DA
:1020700089B01D4616460446882100F02AF80A2039
:10208000FEF750FD1E200090A0884FF6FF7101EA78
:1020900040011D2301AA2068FEF71AFF10B100209D
:1020A00009B0F0BD9DF80A009DF8091041EA002032
:1020B00038809DF80C009DF80B1041EA002030801C
:1020C0009DF80E009DF80D1041EA002028800120A7
:1020D000E6E71CB54FF6FF728DF804101E21009143
:1020E0008188006802EA4101012301AAFFF712F882
:1020F00008B100201CBD01201CBDFEE701684A6933
:10210000D24352050FD46FF480624A61002140F837
:10211000301F202242738173026942F0040202617F
:102120000173012070470020704700002DE9F84F2F
:102130000446C06A1E4693460D4621680A6842F46A
:1021400080620A60082807D0012805D010F5803F7A
:1021500002D0206B112804D12068016841F48071FD
:1021600001604FF001195B46002249462046009667
:1021700000F098F94FF4007840B120680068C0057D
:1021800001D5C4F840800320BDE8F88F2069DFF84E
:1021900084A0B0F5804F0FD00620216800EAD51743
:1021A00047F0F000086133465A460AF1060120461E
:1021B00000F0ACF958BB03E0E8B240F001001CE0CD
:1021C0002168E8B2086133465A465146204600F07D
:1021D0009DF9E0B92068416981690091016841F485
:1021E000807101605B46002249462046009600F05F
:1021F00059F90028C1D147F0F10021680861334640
:102200005A465146204600F081F90028BCD00120F2
:10221000BAE7000002000100F8B50446C06A1E4695
:102220000D461746082807D0012805D010F5803F35
:1022300002D0206B122804D12068016841F480711B
:102240000160134600224FF001112046009600F075
:1022500029F940B120680068C00502D54FF400702C
:1022600020640320F8BD2069B0F5804F0ED0062011
:10227000216800EAD51040F0F000086133463A4684
:102280000B49204600F042F978B902E005F0FE0063
:1022900000E0E8B221680861054933463A46891FE3
:1022A000204600F033F90028DCD00120F8BD000002
:1022B000080001002DE9F84F0446006889460B9D8F
:1022C00001689846174641F4806101602068016802
:1022D00041F48071016000954FF0011B00225946C6
:1022E00020460A9B00F0DEF84FF4007A40B12068E7
:1022F0000068C00501D5C4F840A00320BDE8F88FF0
:10230000216809F0FE0008612B46284920460A9AF8
:1023100000F0FCF8F0BB20684169806900902A4613
:1023200020460A9900F070F940B1206C04283AD197
:102330002068016841F40071016034E0FEB2B8F138
:10234000010F09D02168380A08612A4620460A99F7
:1023500000F05AF90028E8D1206806612A46204694
:102360000A9900F051F90028DFD12068016841F492
:102370008071016000950022594620460A9B00F0BA
:1023800091F80028B3D1216809F0FF0040F0010066
:10239000086100E007E02B46044920460A9A00F055
:1023A000B5F80028AAD00120A8E70000020001002B
:1023B0002DE9F843044600680D46DDE908970168F9
:1023C0009846164641F4807101604B4600224FF05A
:1023D00001112046009700F065F848B120680068B8
:1023E000C00502D54FF4007020640320BDE8F883D7
:1023F000216805F0FE0008613B464A461549204623
:1024000000F084F888B920684169806900903A46F4
:102410004946204600F0F8F848B1206C042804D161
:102420002068016841F4007101600120DEE7F5B227
:10243000B8F1010F09D02168300A08613A464946CF
:10244000204600F0E1F80028E7D12068056100206F
:10245000CCE700000200010070B516460D460446A8
:102460000DE02046FFF74AFE08B1012070BD681C50
:1024700005D0FEF763FC801BA84207D835B1206861
:102480004069C0434007ECD4002070BD002044F8F0
:10249000300F20216173A073216941F02001216177
:1024A0002073E2E72DE9F0471E4690460D460446AC
:1024B000C1F30747DDF8209008E0701C06D0FEF756
:1024C0003DFCA0EB0900B0420FD876B12068012F87
:1024D00018D0806925EA00000004000C14D0002107
:1024E0004145EAD00020BDE8F087002044F8300FD5
:1024F00020216173A073216941F0200121612073C3
:102500000120F0E74069E5E70121E9E72DE9F0471F
:102510009A4691460E46044600254FF02008C1F326
:10252000074725E020684069C043400514D420686F
:10253000016841F40071016021686FF480604861B6
:10254000256384F83D8084F83E50206C40F0040000
:10255000206484F83C501FE0B9F1FF3F08D0FEF73B
:10256000EDFBA0EB0A0149450CD8B9F1000F09D0E9
:102570002068012F13D0806926EA00000004000CB7
:102580000BD0CFE744F8305F84F80D80A573206945
:1025900040F02000206125730120BDE8F0874069EC
:1025A000EAE72DE9F041002590460E460446202733
:1025B00017E04069C043C0060CD454F8301B6FF0DC
:1025C0001000486144F810596777A577206A2062A7
:1025D000257717E0FEF7B2FBA0EB0800B04208D861
:1025E0003EB120684169C9434906E2D40020BDE8F4
:1025F000F08144F8305F6773A573206940F02000D4
:10260000206125730120F2E770B516460D46044699
:102610000DE02046FFF772FD08B1012070BD681C77
:1026200005D0FEF78BFB801BA84207D835B1206888
:102630004069C0430006ECD4002070BD002044F87F
:10264000300F20216173A073216941F020012161C5
:102650002073E2E770B586B000242048009401940E
:1026600002940394816941F010018161816901F054
:1026700010010491816941F020018161816901F0BB
:1026800020010491816941F004018161816901F0B7
:1026900004010491816941F0080181618069104E53
:1026A00000F008004FF400550490002229463046FF
:1026B000FEF73FFB0220CDE9024000950125694667
:1026C00001953046FEF740FA4FF470408DE8310036
:1026D00069460448FEF738FA06B070BD00100240A3
:1026E00000100140000C0140FEE7FEE770470000CB
:1026F000FEB50F461646044642F6064100F034F891
:10270000C820FEF70FFA1E200090A0884FF6FF7534
:1027100005EA4001062301AA2068FEF7D9FB08B1AB
:102720000020FEBDBDF80400BDF8071040BA4CBA49
:1027300001F0F0FC094901F001FD094901F008FC34
:10274000084901F0A3FB01F0C5FC38806420444334
:10275000B4FBF5F030800120FEBD000000002F43E7
:1027600000FF7F47000034C21CB50A0A8DF8042020
:102770008DF805101E21009181884FF6FF7202EA44
:1027800041010068022301AAFEF7C4FC08B1002041
:102790001CBD01201CBD704710B52BB1904201D269
:1027A000401C04E00C4605E0884202D9401EC4B239
:1027B00000E01446224605A10648FDF709FD05493B
:1027C000A1F10C00FEF734F8204610BD253032642C
:1027D00000000000C401002010B54FF4004107487C
:1027E000FEF7A2FA064910B94888401C48800888BC
:1027F000401C0880BDE81040FEF710BF000C0140EF
:102800007800002030B58FB028216846FDF7F4FD30
:1028100014210AA8FDF7F0FD01210804CDE90010FC
:102820000024029402250491CDE907504FF4E010F2
:1028300009906846FFF776F808B172B6FEE70F20F8
:10284000CDE90A054FF48060CDE90C4002210AA8C9
:102850000E94FEF77BFF002801D072B6FEE70FB0A2
:1028600030BD704710B5406A0021C185C184FFF7B3
:10287000FEF910BD0168CA6822F49072CA6001684E
:102880004A6922F001024A61016B012904D1016801
:10289000CA6822F01002CA60202180F83E10002190
:1028A0000163704708B590F83E10222901D002203C
:1028B00008BD82684FF480539A4201D1016921B169
:1028C000816A9A421BD04AB10AE00268816A526862
:1028D000C2F308020A80816A891C08E0026972B1A9
:1028E0000268526802F07F020A70816A491C8162A4
:1028F000C18D491E0904090CC18503D019E0026885
:102900005268F1E70168CA6822F02002CA600168D3
:10291000CA6822F48072CA6001684A6922F0010222
:102920004A61202180F83E10016B012903D0FFF796
:102930002DFB002008BD002101630168CA6822F058
:102940001002CA6001680A68D20602D50A6849689E
:102950000091818DFFF78AF9EBE7000070B504461E
:1029600000680169E26821F4405111430161216965
:10297000A0680843616908432168CA6841F20C6392
:102980009A430243CA6020684169A26921F44071F8
:10299000114341611E492068884202D1FEF77CFF45
:1029A00001E0FEF769FF00EBC00101EB0012606877
:1029B00064218000B2FBF0F3B3FBF1F36FF0180673
:1029C0007343B2FBF0F5B2FBF0F605EB830532235F
:1029D00003EB0515B5FBF1F5B6FBF1F605F0F005D7
:1029E00005EB0615B2FBF0F6B2FBF0F0B0FBF1F030
:1029F0006FF01802504306EB800003EB0010B0FBB1
:102A0000F1F0216800F00F002844886070BD0000DC
:102A10000038014081628285C28500210164222242
:102A200080F83E2080F83C100168CA6842F4807249
:102A3000CA6001684A6942F001024A610068C168DF
:102A400041F02001C160002070472DE9F041984617
:102A500017460E460446069D1DE0681C1BD02DB18E
:102A6000FEF76CF9A0EB0800A84214D92068C168F1
:102A700021F4D071C1602068416921F001014161F8
:102A8000202084F83D0084F83E00002084F83C00BB
:102A90000320BDE8F0812068006836EA000004D019
:102AA0000020B842D9D00020F3E70120F9E7000068
:102AB0000148FFF7DDB8000010010020FEE709071C
:102AC000090E002804DB00F1E02080F800147047B4
:102AD00000F00F0000F1E02080F8141D704730383E
:102AE0000A2801D2012070470020704786B0FEF707
:102AF0009DFDFFF787FEFFF7ADFDFF48FD49002470
:102B00000160FE49C0E901144FF48045C0E9034566
:102B100044618461C4610462FEF716F908B172B6BB
:102B2000FEE7F548F649543001604FF41651C0E90C
:102B300001140C21C460C0E904418461C461FFF741
:102B40009DF908B172B6FEE7EB480122ED49543019
:102B5000FFF706FAEC4BEB484FF4004219464930B8
:102B6000FDF7BBFDE7482A4619465130FDF7B5FD94
:102B7000E4484FF4005219465930FDF7AEFDE148E4
:102B80004FF4805219466130FDF7A7FDFDF7A5FE11
:102B900010B10020FDF7C0FE0420D7490090142397
:102BA0007E2201F1FC00FDF7CDFDD3480022114645
:102BB000FC30FDF718FED048D4A1FC30FDF738FEFC
:102BC0004FF4FA60FDF7AEFFCE4CE41E20780128EA
:102BD00038D020780028F9D160780028F6D000207D
:102BE0006070C548FC30FDF7A3FDC34800221146C4
:102BF000FC30FDF7F8FDC048C9A1FC30FDF718FE18
:102C0000BD4801220021FC30FDF7EDFDBA48CAA104
:102C1000FC30FDF70DFEB84802220021FC30FDF724
:102C2000E2FDB548CAA1FC30FDF702FEB24803221E
:102C30000021FC30FDF7D7FDAF48C8A1FC30FDF7FF
:102C4000F7FDC3E7AC48FC30FDF772FDAA4800224F
:102C50001146FC30FDF7C7FDA748C3A1FC30FDF7C6
:102C6000E7FD4FF4FA60FDF75DFF00273E46BA46E8
:102C7000B9464FF0010B98E0002FFCD0012F7DD01A
:102C8000022FF9D15FEA09007AD0B9F1010FF3D12F
:102C9000607860B100206070024601469648FC30C2
:102CA000FDF7A1FD9448B6A1FC30FDF7C1FDBA487F
:102CB00001884FF47A7841451ED90021018091485E
:102CC0006930FDF74BFE8C4801220021FC30FDF7F6
:102CD0008AFD8C486930C1880578437882788DE810
:102CE0002E000379C278ADA1B448FDF771FAB3495B
:102CF000A1F10C00FDF79CFD82484930FDF7F2FC84
:102D0000E8B3AF48018841453FD9002180460180A2
:102D1000AA480C38FDF705FD01257A484930FDF732
:102D2000E1FC20B10020A8F800006D1CEDB2052DDB
:102D300000D9012573486130FDF7D4FC00287CD010
:102D40009E48002211460C38FDF74DFD9B489DA181
:102D50000C38FDF76DFD6B496931CA880879CDE9FA
:102D60000002CB788A7849780020FDF729FE934845
:102D70000C38FDF7CFFC4FF4FA6002E0F6E304E014
:102D8000F5E3FDF7CFFE84F801B05E486130FDF752
:102D9000A9FC00283FF470AF0020814687480C381A
:102DA000FDF7C6FC84F801B066E7072EFDD2DFE828
:102DB00006F0049F9E9D9C9B9A0077480088B0F582
:102DC0007A7F22D9744900200880024601467B4858
:102DD0000C38FDF708FD4B486930FDF7BFFD494849
:102DE0006930C1880578437882788DE82E000379B0
:102DF000C2787AA17148FDF7EBF97049A1F10C0096
:102E0000FDF716FD84F801B002E06078002869D073
:102E100061490020607008800246014667480C380E
:102E2000FDF7E1FC37486930FDF798FD354869301A
:102E3000057843788278C18800E0FCE38DE82E00B5
:102E40000379C27855A15D48FDF7C2F95B49A1F14C
:102E50000C00FDF7EDFC5948012200210C38FDF76C
:102E6000C2FC564866A10C38FDF7E2FC534801222B
:102E700006210C38FDF7B7FC504862A10C38FDF76D
:102E8000D7FC4E4801220C210C38FDF7ACFC4B4816
:102E90005DA10C38FDF7CCFC4848022200210C381B
:102EA000FDF7A1FC454859A10C38FDF7C1FC43488A
:102EB000022206210C38FDF796FC404854A10C383C
:102EC000FDF7B6FC3D4802220C210C38FDF78BFCC7
:102ED0003A4850A10C38FDF7ABFC384803220021DA
:102EE0000C3899E0A7E0D3E19EE174E14AE10FE1FB
:102EF000D4E0000000540040BC000020A086010087
:102F00000044004007000020000C0140546869653F
:102F100074206C61702068652074686F6E670000B3
:102F2000455350383236362063687561206B6574BE
:102F3000206E6F6920000000547275792063617003
:102F400020776966692076612049502000000000E2
:102F50004553505F31353439333300003139322E27
:102F60003136382E342E3100455350383236362023
:102F70006B6574206E6F69207769666900000000D8
:102F8000436169206461742074686F6920676961B6
:102F90006E3A2020000000007800002025303264C6
:102FA0002F253032642F32302530326420253032E4
:102FB000643A253032643A2530326400C40100207E
:102FC0007A0000204461206C7575206C6169206373
:102FD0006169206461743A20000000002530326489
:102FE0002F253032642F32302530326420253032A4
:102FF000643A253032643A25303264200000000003
:1030000054313A0048313A004C313A0054323A00D7
:1030100048323A004C323A00FDF7E5FBFCA1FE488D
:10302000FDF706FC03220E21FB48FDF7DCFBFBA1AC
:10303000F948FDF7FDFBFB48FDF754FB28B10127DC
:10304000F548FDF775FB84F801B0F6480838FDF740
:1030500049FB00283FF4A8AE03220E21EE48FDF7FD
:10306000C2FBF1A1EC48FDF7E3FBF1490020088029
:10307000608220836083A083E08320846084024692
:103080000146E548FDF7AFFBEAA1E348FDF7D0FBB9
:103090004FF4FA60FDF746FD0126EDE500221146EA
:1030A000DD48FDF7A0FBE8A1DB48FDF7C1FBDD4AE9
:1030B0003A3A911E01F11400FFF71AFB4FF4FA702F
:1030C000FDF730FD01220321D348FDF78CFBD248E8
:1030D000228BE2A10C30FDF77BF8CF49CE480C31B2
:1030E000FDF7A6FB01220921CB48FDF77CFBCA486E
:1030F000628BDAA10C30FDF76BF8C749C6480C317A
:10310000FDF796FB4FF4FA60FDF70CFD02264CE646
:1031100000221146C048FDF766FBD1A1BE48FDF76D
:1031200087FBC04A363A911E01F11800FFF7E0FA1A
:103130004FF4FA70FDF7F6FC02220321B648FDF7C2
:1031400052FBB548A28BC5A10C30FDF741F8B2493E
:10315000B1480C31FDF76CFB02220921AE48FDF7A6
:1031600042FBAD48E28BBDA10C30FDF731F8AA4916
:10317000A9480C31FDF75CFB4FF4FA60FDF7D2FC77
:10318000032612E600221146A348FDF72CFBB9A145
:10319000A148FDF74DFBA349343901F11C00FDF7AF
:1031A0004FFA4FF4FA70FDF7BDFC01220F219A4847
:1031B000FDF719FB9848228CA8A10C30FDF708F800
:1031C000954995480C31FDF733FB4FF4FA60FDF754
:1031D000A9FC0426E9E5002211468F48FDF703FB10
:1031E000AAA18D48FDF724FB8E49323901F1220056
:1031F000FDF726FA4FF4FA70FDF794FC02220F2136
:103200008548FDF7F0FA8448628C94A10C30FCF7F5
:10321000DFFF814980480C31FDF70AFB4FF4FA606B
:10322000FDF780FC0526C0E5002211467A48FDF72F
:10323000DAFA9CA17848FDF7FBFA7A4B3E3B1A1F5D
:10324000911C01F11000FEF711FF4FF4FA70FDF729
:1032500069FC032206217048FDF7C5FA6E48628AB0
:103260007EA10C30FCF7B4FF6B496B480C31FDF7C5
:10327000DFFA4FF4FA60FDF755FC0022114666486C
:10328000FDF7B1FA8DA16448FDF7D2FA06268CE568
:1032900064481030FDF726FAD0B1002211465E488E
:1032A000FDF7A1FA8AA15C48FDF7C2FA002060820E
:1032B00020836083A083E083208460844FF4FA60DD
:1032C000FDF730FC00265448FDF732FA84F801B0CF
:1032D00054480838FDF706FA0028A4D00022114609
:1032E0004D48FDF780FA80A14B48FDF7A1FA0A2569
:1032F00005EBC50000EB051018228149FDF757F9D1
:10330000681C00EBC00101EB001018227C49FDF79E
:1033100051F96D1EECD57A48B4F818C01838E64655
:10332000A0F800C0668B4680A58B8580B4F81EC0CF
:10333000A0F806C0CDF810C0238C0381628C3949F7
:103340004281B4F812801831A0F80C8091F803C0C3
:10335000A0F80EC0CDF80CC091F804C0A0F810C0C1
:10336000CDF808C0B1F806C0A0F812C0CDF804C06E
:10337000DFF8B0C089780CF1180C81829CF801C08C
:10338000A0F816C0CDF800C018304FEA1E2C80F807
:1033900000C080F801E04FEA162C80F802C0C67029
:1033A0002E0A06714571DDF810C04FEA1C258571A3
:1033B00080F807C01D0A05724372130A8372C27235
:1033C0004FEA1822027380F80D80DDF80CC04FEA36
:1033D0001C22827380F80FC0DDF808C04FEA1C225F
:1033E000027480F811C0DDF804C04FEA1C22827418
:1033F00080F813C00A0A02754175DDF800C0182272
:103400004FEA1C21817580F817C00146002079E041
:10341000504D322E353A0000B80100204D6F6465E2
:103420003100000058000020202020202020000033
:10343000780000204261742064617520646F206709
:103440006961207472693A00446F2054656D70316F
:103450002048756D313A202020202000253264005C
:10346000446F2054656D70322048756D323A2020CB
:1034700020202000446F2063756F6E6720646F20EA
:1034800073616E67313A202000000000446F2063B2
:10349000756F6E6720646F2073616E67323A20200B
:1034A00000000000446F2062756920504D322E35B7
:1034B0003A202020202020200000000044612064C9
:1034C0006F20786F6E6720676961207472693A00B7
:1034D0004B686F6E67206C7575206C61693A2020AF
:1034E000202020200000000044616E67206C75756C
:1034F00020676961207472693A2020200000000072
:10350000A4000020FDF756F84FF4FA60FDF70AFB1F
:1035100000221146FE48FDF766F9FEA1FC48FDF7C2
:1035200087F9E08B0DF1040C638A628C218C8CE8A6
:103530000F00A08B0090F648638B228BFAA16438B1
:10354000FCF746FEF2494FF47A7364396422A1F124
:103550004400FEF731FD42F21070FDF7E3FA002659
:10356000EB48FDF7E5F884F801B026E400E055E10A
:103570005FEA0A007ED0BAF1010F7FF415AC6078E3
:10358000002878D00020607002460146E048FDF730
:103590002AF9A078182200EBC00101EB0010EA49DB
:1035A000FDF705F8E84D687CEB7D6A7DE97C8DE8E8
:1035B0000F00A278EB7BE5A105F59070521CFCF79B
:1035C00007FE05F59071D248FDF732F9012200217E
:1035D000CF48FDF708F92888E4A142BAA28005F592
:1035E0009070FCF7F5FD05F59071C948FDF720F9DD
:1035F00001220621C648FDF7F6F86888DDA142BA27
:10360000E28005F59070FCF7E3FD05F59071C04888
:10361000FDF70EF901220C21BD48FDF7E4F82889D9
:10362000D6A142BAA28105F59070FCF7D1FD05F54F
:103630009071B74800E014E1FDF7FAF8022200218A
:10364000B348FDF7D0F8A888CEA142BA228105F58B
:103650009070FCF7BDFD05F59071AD48FDF7E8F8F9
:1036600002220621AA48FDF7BEF8E888C7A142BA9F
:10367000628101E039E02CE005F59070FCF7A8FDCF
:1036800005F59071A248FDF7D3F802220C21A0485D
:10369000FDF7A9F86889BFA142BAE28105F59070EB
:1036A000FCF796FD05F590719948FDF7C1F80322E6
:1036B00000219748FDF797F8A889B8A142BA22825D
:1036C00005F59070FCF784FD05F590719048FDF7C5
:1036D000AFF8B548FDF706F8B0B3B4480088B0F5C8
:1036E0007A7F6DD9A07845B243E0607850B1002070
:1036F0006070024601468648FDF775F8ACA1844823
:10370000FDF796F8A8480830FCF7ECFF28B102272F
:103710007F48FDF70DF884F801B0A3481030FCF79E
:10372000E1FF28B100277A48FDF702F884F801B0DC
:103730009D48FCF7D7FF00283FF4AFAC00204FF0C6
:10374000010AA070FFF72ABB3AE0681C804600EB34
:10375000C00101EB081018227B49FCF728FF05EB9C
:10376000C50000EB051018227749FCF723FF4FFA3C
:1037700088F50A2DE9DD7448002118220170417096
:103780008170C170017141718171C17101724172A9
:103790008172C172017341738173C1730174417489
:1037A0008174C174017541758175C175014640F21E
:1037B0001310FCF7FFFE5648FCF7BAFF84F801B07F
:1037C00079481830FCF78EFF30B15148FCF7B0FF54
:1037D00084F801B04FF0000A73480830FCF782FF0C
:1037E00050B1A0780A2807D24948FCF7A1FF84F815
:1037F00001B0A078401CA0706B481030FCF772FF3D
:10380000002899D0A078002896D04148FCF790FF76
:1038100084F801B0A078401EA0703EE4607868B1E2
:1038200000206070024601463948FCF7DCFF38484A
:10383000FCF77EFF60A13648FCF7FAFF5A481030CB
:10384000FCF750FF28B101273148FCF771FF84F8DD
:1038500001B05548FCF746FF0028DED00120FFF7F5
:103860009CBA062DBFF459AADFE805F003052CAC7D
:10387000D2F9FFF752BA012200212548FCF7B3FF25
:1038800049480830FCF72EFF50B14748012320304B
:103890001F22C0781946FEF77FFF43492031C870C8
:1038A00041481030FCF71EFF0028E2D03E480023BC
:1038B00020301F22C0780121FEF76EFF3A492031E7
:1038C000C870D6E7012203211148FCF78CFF364867
:1038D0000830FCF707FF50B13348012320300C2299
:1038E00000791946FEF758FF2F49203108712E48FC
:1038F0001030FCF7F7FE0028BBD02B480023203007
:103900000C2200790121FEF747FF2749203157E0BB
:10391000B80100204461206C7575206769612074CE
:1039200072693A2020202000412532644225326409
:103930004325326444253264452532644625326489
:103940004725326448000000A40000204D25316462
:103950003A253032642F253032642F323025303210
:103960006420253032643A253032640054313A25DF
:103970003264000048313A25326400004C313A2567
:103980003564000054323A253264000048323A254A
:10399000326400004C323A2535640000504D323517
:1039A0003A25346400000000500000207A00002016
:1039B0004D6F6465320000004D6F64653300000098
:1039C000087156E7012208213848FCF70CFF3848F7
:1039D000FCF788FE50B13648012318306322807905
:1039E0000021FEF7D9FE32491831C880304808302E
:1039F000FCF778FE0028E4D02D480023183063221D
:103A000080791946FEF7C8FE29491831C88030E789
:103A100001220B212548FCF7E6FE2548FCF762FE53
:103A200050B1234801231830172280780021FEF777
:103A3000B3FE1F49183188701D480830FCF752FE4C
:103A40000028BED01A480023183017228078194663
:103A5000FEF7A2FE1649183188700AE7FFE7012237
:103A60000E211248FCF7BFFE1148FCF73BFE50B197
:103A70000F48012318303B2240780021FEF78CFECE
:103A80000B49183148700A480830FCF72BFE002813
:103A900097D00748002318303B2240781946FEF79C
:103AA0007BFE034918314870E3E60000B8010020AE
:103AB000580000202DE9C04130B4DFF8A0C23CEA34
:103AC000111418BF3CEA131400F0EC8081EA0305DE
:103AD0001CEA111444EAD57418BF1CEA131500F04F
:103AE000C780A4EB05044FF0004545EAC12145EA33
:103AF000C32341EA505143EA525304F17F7499427F
:103B000004F500344FEAC0204FEAC22208BF9042B9
:103B100000F09C804FEA13650FF24016765D4FEA85
:103B2000134506FB05F7C7F1807706FB07F74FEA59
:103B3000D737A7FB03687642C8F58038A7FB06CEC7
:103B400038BFA8F1010807FB08E64FF0000EA6FBFE
:103B5000028CE6FB03CEDCF1000CCEF1004E38BF48
:103B6000AEF1010EA6FB0C584FF000074FF0000518
:103B7000E6FB0E87A1FB08C6A0FB07CE16EB0E06E0
:103B800045F10005E1FB076515F1E04E7EBFA4F5A8
:103B900080345FEA46066D4116F1800745F1000565
:103BA0004FEA17274FEA066647EA0567A6F1DE46A1
:103BB000B6F1805F4FEA15251FD9384624F0010C75
:103BC00005EBC471BCF1FE6F01EB0C1102D8F0BC27
:103BD000BDE8008124425CBF01F5801E9EEAC47FDF
:103BE00002D4F0BCBDE80081244238D4F0BCA1F17D
:103BF000C041BDE8004100F043B94FEAD22242EA99
:103C000043524FEAD323A7FB02864FEAD02040EA73
:103C1000415007FB03661EEA0E0F4FEAD12105FB58
:103C2000026658BFA6EB0056B6EB00564FEA520E9E
:103C30004EEAC37E18EB0E0E56EB530EBDD518EBB5
:103C400002085E417F1C55F10005B6E74FF4801570
:103C50004FF000074FF000064FF00008ADE7F0BC52
:103C60004FF0000001F1C04101F00041BDE80081CA
:103C700011EA0C1F0CEA131500D00CE013EA0C1F1C
:103C800000F025804FF00000F0BC81EA030101F054
:103C90000041BDE80081F0BCBDE8004181EA0301BC
:103CA00000F0EEB8F0BCBDE8004170B500F09AF845
:103CB000097EFC3E00F007B881EA03014FF00000E6
:103CC00001F00041704781EA030100F0D9B8F0BC6F
:103CD000BDE800414FF0000021497047FFFDFBF9AE
:103CE000F7F5F4F2F0EEEDEBE9E8E6E4E3E1E0DE2F
:103CF000DDDBDAD8D7D5D4D3D1D0CFCDCCCBCAC8A1
:103D0000C7C6C5C4C2C1C0BFBEBDBCBBBAB9B8B7C7
:103D1000B6B5B4B3B2B1B0AFAEADACABAAA9A8A8BA
:103D2000A7A6A5A4A3A3A2A1A09F9F9E9D9C9C9B88
:103D30009A99999897979695959493939291919033
:103D40008F8F8E8E8D8C8C8B8B8A898988888787C4
:103D50008685858484838382828181800000FF0739
:103D60000000F87F4FEA1153A3F58063D3F11E03DF
:103D7000A8BFD3F1200C08DB4FF0004242EAC12279
:103D800052EA505232FA03F0704709420BD4102B1A
:103D9000C4BF0020704703F5787CBCF1FF3F05D01D
:103DA0004FF0FF3070474FF00000704770B500F0E3
:103DB00019F800BF4992248000207047F0E7B0FA5C
:103DC00080F310FA03F10AD0C3F11D0303F58063F9
:103DD0004FEA41504FEA035202EBD12170474FF0B6
:103DE000000070470EF1020E2EF0030E5EF8046B19
:103DF000364205D4012A43EB030515F5001F12D8FE
:103E0000012841EB010C1CF5001F0CD80ED14FEA24
:103E1000D17C15F5001F0CEB4C0C0CF1020C08BF0B
:103E20004CEBD37C04E04FF0080C01E04FEAD37C6C
:103E30000CEB4C0526FA05F606F00706B6F1040C65
:103E400006D20EEB860CBDE870404CF0010C6047CA
:103E5000DFE80CF0090B02024FF000414FF00000C8
:103E6000A1F5002170BD19461046012851EB01044F
:103E700018BFD4F5001484BF002001F0004170BDCC
:103E80000808A0F500114FEA3101704790EA010FD0
:103E900048BF81F0004100F12482421A3CBF801AE1
:103EA00089184FEAD0524FF07F4C1CEA410FA2EB29
:103EB000D15318BF9CEA026F00F03B804FF0004CDA
:103EC0004CEA00204CEA012121FA03FC10EB0C0C17
:103ED0001ED202F1FF325FEA1C2040EBC25038BF15
:103EE00070471CF07F0F4FEA400C18BFBCF17F4FAA
:103EF00038BF7047C3F12003994008BF20F001008C
:103F0000BCF17F4F38BF7047A0F1C04000F0DDB971
:103F10004FEA3C00000A40EBC25028BF1CF0FF0FE4
:103F20004FEA400CE6D018BFBCF17F4F38BF704756
:103F3000EAE79CEA026F05D010EA5C0F08BF00F0C8
:103F40000040704710B500F07AF900BF64FBBE3E38
:103F50004FF47F0C1CEAD0121EBF1CEAD11392EA68
:103F60000C0F93EA0C0F00F0858090EA010F48BF18
:103F700042F4807240F4000C41F400002CF07F41C8
:103F800020F07F4000B58142A2EB03020FF2081C33
:103F9000ACEB504EC0F100009EF800E04FEA4E0E30
:103FA00000FB0EFC38BF49004FEA2C1C02F5FA0258
:103FB0000CFB0EF34FEACE1E4FEA112C4FEAC12143
:103FC0000EEB635E42EB22420EFB0CFC4FEA1C53ED
:103FD00000FB03114FEA112C4FEA01310EFB0CFCE0
:103FE0004FEADC4C00FB0C11C14228BF09184CEB16
:103FF00003335DF804EB10EB410143EBC250B2F523
:104000007C0F38BF704729D512F0F00F1CBF00F1AC
:10401000C04000F00040704700818283848586871D
:1040200088898B8C8D8E8F919293959697999A9C77
:104030009D9FA0A2A3A5A7A8AAACAEB0B2B3B5B7E6
:10404000B9BCBEC0C2C5C7C9CCCED1D4D7D9DCDFBC
:10405000E2E6E9ECF0F3F7FAFE0000004FEA400C6C
:104060000CF1807CBCF17E4F28BF7047B0F1C0409E
:1040700000F02BB990EA010F0CEAD11348BF42F4CB
:104080008072624538BF634507D213F47F0F16D0A4
:1040900080EA010000F00040704710B500F0CFF852
:1040A000097EFC3E00F005B880EA010000F0004007
:1040B000704780EA010000F0004000F006B912F4F9
:1040C0007F0F04BF0248704780EA010000F0FDB88E
:1040D0000000C07FC10DD1F19E0206DB4FEA002334
:1040E00043F0004323FA02F07047004207D54FEA3D
:1040F0004001B1F1FE4F02D24FF00000704710B501
:1041000000F09DF849922480002070476FEA20005B
:1041100070470000B0FA80F310FA03F2C3F19D0378
:104120000AD0D90501EB1220530638BF704700F1C1
:10413000010008BF20F00100704700004FF47F0C21
:104140001CEAD0121EBF1CEAD11392EA0C0F93EAAC
:104150000C0F00F0478090EA010F48BF42F48072D4
:104160004FF0004C4CEA00204CEA012102EB030224
:10417000A0FB0113A2F50002002918BF43F00103C0
:104180005B0028BF4FEA330342EB22425FEA132C65
:104190004CEBC2502EBFBCEB436FB2F57C0F7047A7
:1041A0004FEA036CBCF1004F08BF20F00100B2F5EC
:1041B0007C0F38BF70470BD582F0FF0212F5803FAD
:1041C000C8BF704700F1C040D8BF00F00040704742
:1041D00000F5000C5FEA4C0C48BF7047B0F1C040DE
:1041E00000F073B890EA010F0CEAD11348BF42F413
:1041F0008072624538BF634504D280EA010000F056
:104200000040704710B500F01AF800BF8900013E69
:1042100000F007B800F009B85FEA410C5FEA1C6CD7
:1042200008D080EA010000F050B85FEA400C5FEA75
:104230001C6CF6D14FF00040A0F5800070470EF1E5
:10424000020E2EF0030E5EF8044B244204D44FEA13
:104250004102B2F17F4F11D84FEA4003B3F17F4FD3
:104260000CD80ED14FEAD07CB2F17F4F0CEB4C0C46
:104270000CF1020C08BF4CEBD17C04E04FF0080CB1
:1042800001E04FEAD17C0CEB4C0324FA03F404F078
:104290000704B4F1040C06D20EEB840CBDE8104008
:1042A0004CF0010C6047DFE80CF0070802024FF009
:1042B0000040A0F5800010BD0846420018BFD2F1B2
:1042C000807288BF00F0004010BDFF2141EAD0504D
:1042D000C005704790EA010F48BF81F000413FF5EB
:1042E000DCAD421A04D882F00042A0EB0200114477
:1042F0004FEAD0524FF07F4C1CEA410FA2EBD15352
:1043000018BF9CEA026F4AD04FF0004C4CEA0020E4
:104310004CEA012121FA03FCB0EB0C0C0FD412F093
:10432000FE0F36D05FEA4C001DD5001240EBC250A4
:1043300038BF70471CF03F0F18BF70470BE0A2F169
:1043400001025FEA1C2040EBC25038BF70471CF0EE
:104350007F0F18BF7047C3F12003994014BF401E60
:1043600020F00100704780084FEA122308BF704711
:10437000B0FA80FCA2EB0C02CCF1280C60FA0CF035
:1043800093EA122F04BF00EBC25070474FEAC3708C
:104390007047130A5FEADC1008BF7047F6E79CEA33
:1043A000026F04D010EA5C0F08BF0020704710B500
:1043B000FFF745FF40DFF63E81F000407047000008
:1043C00000000000000001020304060708090000C5
:1043D00000000102030404000008000000000000C7
:1043E0000002000100001000084400080000002046
:1043F0008C00000028010008944400088C00002074
:10440000E4070000440100081F000000FF01000055
:10441000000000000000000000000000000000009C
:10442000000000000000000000000000000000008C
:10443000BC00002040000000BC000020450000003F
:10444000BC00002044000000BC0000205C00000014
:10445000BC0000202300000000000000000000005D
:10446000000000000000000000000000000000004C
:10447000000000000000000000000000000000003C
:10448000000000000100000010000000000000001B
:044490000024F40010
:04000005080000ED02
:00000001FF
